:020000040800F2
:10000000A80800246D030008E93D0008CD3B000866
:10001000E53D00087B0400082945000800000000B9
:10002000000000000000000000000000EF3D00089C
:10003000ED0B000800000000ED3D0008F13D000858
:100040008B0300088B0300088B0300088B03000858
:100050008B0300088B0300088B0300088B03000848
:100060008B0300088B0300088B0300088104000841
:1000700091040008A1040008B10400088B030008E3
:100080008B0300088B0300088B0300088B03000818
:100090008B0300088B0300088B0300088B03000808
:1000A0008B0300088B0300088B0300088B030008F8
:1000B0008B0300088B0300088B0300088B030008E8
:1000C0008B0300088B0300088B0300088B030008D8
:1000D0008B0300088B0300088B0300088B030008C8
:1000E0008B0300088B030008000000008B0300084E
:1000F0008B0300088B0300088B0300088B030008A8
:100100008B0300088B0300088B0300088B03000897
:100110008B0300088B0300088B0300088B03000887
:100120008B0300088B0300088B0300088B03000877
:100130008B0300088B0300088B0300088B03000867
:1001400000000000000000000000000000000000AF
:100150008B0300088B0300088B0300088B03000847
:100160008B0300088B0300088B0300088B03000837
:100170008B0300088B0300088B03000800000000BD
:100180008B0300088B0300088B0300088B03000817
:100190008B0300088B0300088B0300088B03000807
:1001A0008B0300088B0300088B030008000000008D
:1001B0008B0300088B0300088B0300088B030008E7
:1001C0008B0300088B030008000000000000000003
:1001D00000000000000000008B0300080000000089
:1001E000000000000000000000000000000000000F
:1001F00000000000000000008B0300088B030008D3
:100200008B0300088B030008000000008B0300082C
:100210008B0300088B0300088B0300088B03000886
:100220008B030008000000008B03000800000000A2
:100230008B0300088B030008000000008B030008FC
:100240008B0300088B0300088B0300088B03000856
:100250008B0300088B0300088B0300088B03000846
:100260008B0300088B0300088B0300088B03000836
:100270008B0300088B0300088B03000800000000BC
:100280008B0300088B0300088B0300088B03000816
:10029000000000008B0300088B0300080000000032
:1002A000000000008B0300088B0300088B0300088C
:1002B0008B0300088B0300088B0300088B030008E6
:1002C0008B0300088B0300088B03000800F002F882
:1002D00000F03CF80AA090E8000C82448344AAF1A4
:1002E0000107DA4501D100F031F8AFF2090EBAE8A2
:1002F0000F0013F0010F18BFFB1A43F0010318475A
:10030000B0430000D0430000103A24BF78C878C141
:10031000FAD8520724BF30C830C144BF04680C600B
:10032000704700000023002400250026103A28BF53
:1003300078C1FBD8520728BF30C148BF0B60704757
:100340001FB504F093F91FBD10B510BD00F05CF8A7
:100350001146FFF7F5FF04F005F900F07AF803B451
:10036000FFF7F2FF03BC00F081F800000A48804765
:100370000A4880470A480047FEE7FEE7FEE7FEE737
:10038000FEE7FEE7FEE7FEE7FEE7FEE70548064973
:10039000064A074B70470000F50B0008B93E0008FD
:1003A000CD020008A8020024A8080024A804002404
:1003B000A80400244FF0000200B513469446964668
:1003C000203922BFA0E80C50A0E80C50B1F1200168
:1003D000BFF4F7AF090728BFA0E80C5048BF0CC016
:1003E0005DF804EB890028BF40F8042B08BF704774
:1003F00048BF20F8022B11F0804F18BF00F8012BE6
:100400007047704770477047754600F02BF8AE464E
:1004100005006946534620F00700854618B020B510
:10042000FFF7B4FFBDE820404FF000064FF0000793
:100430004FF000084FF0000B21F00701AC46ACE88C
:10044000C009ACE8C009ACE8C009ACE8C0098D46F9
:10045000704710B50446AFF300802046BDE8104059
:10046000FFF77DBF0048704748020024014918206B
:10047000ABBEFEE726000200704700BFFEE70000AB
:1004800010B5024800F048FE10BD000068000024CE
:1004900010B5024800F040FE10BD0000E00000244E
:1004A00010B5024800F038FE10BD000058010024CD
:1004B00010B5024800F030FE10BD0000D00100244D
:1004C0000146374A0868904249D0354A18320868D0
:1004D000904244D0324A3032086890423FD0304A8D
:1004E0004832086890423AD02D4A603208689042FB
:1004F00035D02B4A78320868904230D0284A903262
:10050000086890422BD0264AA8320868904226D02C
:10051000244A0868904222D0224A18320868904241
:100520001DD0204A30320868904218D01D4A483207
:100530000868904213D01B4A6032086890420ED07F
:10054000184A78320868904209D0164A90320868F2
:10055000904204D0134AA8320868904201D1012089
:1005600000E00020B0B10A78103A1823B2FBF3F093
:1005700000F007020C4B9A5CCA65032805D90A688B
:100580006FF30902121D8A6503E00A686FF309021E
:100590008A6503E0086820F0FF008865886D704771
:1005A00010000240100402407646000810B50268B0
:1005B0002B4C0368A34222D0294C14340368A34275
:1005C0001DD0274C28340368A34218D0244C3C3457
:1005D0000368A34213D0224C50340368A3420ED0C8
:1005E0001F4C64340368A34209D01D4C783403685F
:1005F000A34204D01A4C8C340368A34201D10123D6
:1006000000E000238BB10378083B1424B3FBF4F122
:10061000144B03EB81030366124B8033436601F0F6
:100620001F040123A340836618E00378103B1824BD
:10063000B3FBF4F10C4B9A4204D80B4BA83B9A4203
:1006400000D30831094B03EB81030366074B80336A
:10065000436601F01F040123A340836610BD000020
:100660000854025800580258B804024000080240DA
:100670000179A9B3082940D8204B02689A4222D0B8
:100680001E4B143302689A421DD01C4B283302685B
:100690009A4218D0194B3C3302689A4213D0174B38
:1006A000503302689A420ED0144B643302689A4267
:1006B00009D0124B783302689A4204D00F4B8C3326
:1006C00002689A4201D1012200E000224AB14A1E8A
:1006D0000B4B03EB8202C266094A4032026708E014
:1006E0000BE04A1E074B03EB8202C266054A40320A
:1006F00002674A1E0123934043677047085402581B
:100700000059025800090240014600208A69D2B906
:100710008A6A32B1012A0DD0022A03D0032A10D1ED
:100720000EE000BFCA6A02F08072B2F1807F00D191
:10073000012007E0CA6AB2F1C07F00D1012001E0C8
:1007400000E000BF36E08A69B2F5005F1BD18A6A1B
:1007500032B1012A07D0022A03D0032A11D10AE0BC
:1007600000BF01200EE0CA6A02F08072B2F1807F01
:1007700000D1012006E0CA6AB2F1C07F00D1012099
:1007800000E000BF16E08A6A32B1012A05D0022AD1
:1007900004D0032A0CD103E000BF00BF012008E011
:1007A000CA6A02F08072B2F1807F00D1012000E0BD
:1007B00000BF00BF70470000F0B5856D846D984F95
:1007C0000668BE4270D0964F18370668BE426BD09E
:1007D000934F30370668BE4266D0914F483706685F
:1007E000BE4261D08E4F60370668BE425CD08C4FEF
:1007F00078370668BE4257D0894F90370668BE42A8
:1008000052D0874FA8370668BE424DD0854F066844
:10081000BE4249D0834F18370668BE4244D0814F4C
:1008200030370668BE423FD07E4F48370668BE422A
:100830003AD07C4F60370668BE4235D0794F783762
:100840000668BE4230D0774F90370668BE422BD044
:10085000744FA8370668BE4226D0734F0668BE4262
:1008600022D0714F14370668BE421DD06E4F283714
:100870000668BE4218D06C4F3C370668BE4213D0A3
:10088000694F50370668BE420ED0674F643706681E
:10089000BE4209D0644F78370668BE4204D0624F2A
:1008A0008C370668BE4201D1012600E000263EB129
:1008B000D0E919767E60C66E16B1D0E91C767E60EE
:1008C000574F0668BE4249D0554F18370668BE429A
:1008D00044D0534F30370668BE423FD0504F483760
:1008E0000668BE423AD04E4F60370668BE4235D0E9
:1008F0004B4F78370668BE4230D0494F9037066874
:10090000BE422BD0464FA8370668BE4226D0454F80
:100910000668BE4222D0434F18370668BE421DD03B
:10092000404F30370668BE4218D03E4F4837066801
:10093000BE4213D03B4F60370668BE420ED0394FDF
:1009400078370668BE4209D0364F90370668BE42F7
:1009500004D0344FA8370668BE4201D1012600E01A
:100960000026DEB190F85C6006F01F073F26BE400F
:10097000AE600668366826F4802607683E60066822
:1009800073608668402E04D10668B2600668F16024
:1009900044E00668B1600668F2603FE0224F0668F6
:1009A000BE4222D0204F14370668BE421DD01E4FD3
:1009B00028370668BE4218D01B4F3C370668BE4237
:1009C00013D0194F50370668BE420ED0164F643709
:1009D0000668BE4209D0144F78370668BE4204D07C
:1009E000114F8C370668BE4201D1012600E0002677
:1009F000A6B190F85C6006F01F070126BE40666055
:100A0000066873608668402E04D10668B260066886
:100A1000F16003E00668B1600668F260F0BD0000B6
:100A200010000240100402400854025810B5044659
:100A30000B4804604FF490714FF04050FFF7BAFC40
:100A400041F21110074908620846406C40F400402A
:100A500048640846006840F00100086010BD0000CE
:100A600018000024000001402DE9F0438DB0054638
:100A70000E4617469846DDF85090ADF82C50ADF86C
:100A80002E60ADF83070ADF8328000201DE00BAC68
:100A900034F81040B4F5006F02DB40F2FF7402E05E
:100AA0000BAC34F810402346002444EA4304A1B2BE
:100AB00081EA211484EA212404F00F0242EA01149D
:100AC0000DF1240C2CF81040401C0428DFDB002022
:100AD00026E0002114E009AA32F810204FF4004368
:100AE0000B411A4012B14FF4AC7200E0AC2200EBA3
:100AF000C0034FF0405404EBC30343F82120491CCA
:100B00001029E8DB002100EBC0024FF0405303EB5B
:100B1000C202116400EBC00203EBC2025164401C2C
:100B20000428D6DB4FF040504FF49071002911DDBE
:100B300000F01F0462180346BFF34F8F00BF274C1D
:100B400023602033203A002AF9DCBFF34F8FBFF334
:100B50006F8F00BF00BF0020214948620861214B10
:100B60000FCB05AC0FC41F4B10330FCB01AC0FC420
:100B7000002427E005A850F824101B480068203006
:100B800050F82100E8B105A951F824201649096858
:100B9000203151F8220000F051F801AB53F8242025
:100BA00004EBC4034FF0405C0CEBC30105AB53F8FE
:100BB00024C00D4B1B68203353F82C00122301F086
:100BC000B1FA641C042CD5DB0548C06840F4F05031
:100BD0000349C8600DB0BDE8F083000068EF00E095
:100BE000000001409046000818000024704772B6CB
:100BF00000BFFEE70748006840F0020005490860B2
:100C000000BF04480838006800F400500028F8D0FD
:100C1000704700000C48025838B500240AE0002054
:100C20000346024601460090FFF71EFF022001F036
:100C300069FB641CB4F57A7FF1DB38BD2DE9F04126
:100C4000044601F071FC804614B90120BDE8F08132
:100C500094F83500022808D08020606500BF00208D
:100C600084F8340000BF0120F0E7FE492068884284
:100C700049D0FC4918312068884244D0F9493031C4
:100C8000206888423FD0F7494831206888423AD0EE
:100C9000F44960312068884235D0F24978312068C3
:100CA000884230D0EF499031206888422BD0ED49FE
:100CB000A8312068884226D0EB492068884222D09B
:100CC000E9491831206888421DD0E7493031206851
:100CD000884218D0E44948312068884213D0E2495C
:100CE0006031206888420ED0DF4978312068884220
:100CF00009D0DD4990312068884204D0DA49A83112
:100D00002068884206D12068006820F00100216830
:100D1000086005E02068006820F001002168086094
:100D2000D0492068884249D0CE491831206888428D
:100D300044D0CC493031206888423FD0C94948313D
:100D4000206888423AD0C74960312068884235D04F
:100D5000C44978312068884230D0C2499031206837
:100D600088422BD0BF49A8312068884226D0BE498E
:100D70002068884222D0BC491831206888421DD0A2
:100D8000B94930312068884218D0B74948312068C5
:100D9000884213D0B4496031206888420ED0B249ED
:100DA00078312068884209D0AF4990312068884264
:100DB00004D0AD49A8312068884201D1012000E06B
:100DC000002068B12068006820F01E0021680860DB
:100DD0002068406920F0800021684861256806E0AD
:100DE0002068006820F00E002168086025689D4991
:100DF0002068884270D09B491831206888426BD0A7
:100E0000984930312068884266D096494831206838
:100E1000884261D093496031206888425CD0914912
:100E200078312068884257D08E49903120688842B6
:100E300052D08C49A831206888424DD08A49206818
:100E4000884249D0884918312068884244D0864970
:100E50003031206888423FD0834948312068884239
:100E60003AD0814960312068884235D07E49783156
:100E70002068884230D07C499031206888422BD04D
:100E80007949A8312068884226D07849206888426C
:100E900022D076491431206888421DD07349283108
:100EA0002068884218D071493C312068884213D0AC
:100EB0006E495031206888420ED06C4964312068F8
:100EC000884209D0694978312068884204D067494E
:100ED0008C312068884201D1012000E0002028B137
:100EE000206E006820F48070216E086011E001F02F
:100EF0001BFBA0EB080005280BD920206065032010
:100F000084F8350000BF002084F8340000BF0120C1
:100F10009CE6286800F001000028E8D151492068CB
:100F2000884249D04F4918312068884244D04D4901
:100F30003031206888423FD04A4948312068884291
:100F40003AD0484960312068884235D045497831E7
:100F50002068884230D043499031206888422BD0A5
:100F60004049A8312068884226D03F4920688842FD
:100F700022D03D491831206888421DD03A4930318D
:100F80002068884218D0384948312068884213D0F8
:100F900035496031206888420ED033497831206865
:100FA000884209D0304990312068884204D02E49C7
:100FB000A8312068884201D1012000E0002040B122
:100FC000A66D94F85C0000F01F013F208840B060DF
:100FD00007E0A76D94F85C0000F01F010120884035
:100FE000786020492068884276D01E4918312068F0
:100FF000884271D01B493031206888426CD0194931
:1010000048312068884267D016496031206888429C
:1010100062D014497831206888425DD011499031FE
:101020002068884258D00F49A8312068884253D0A0
:101030000D49206888424FD00B49183120688842FA
:101040004AD0094930312068884245D006494831A4
:101050002068884240D004496031206888423BD0F3
:10106000014905E0100002401004024008540258F3
:101070007831206888422FD02549206888422BD0BB
:10108000234918312068884226D0224920688842A6
:1010900022D020491431206888421DD01D492831B2
:1010A0002068884218D01B493C312068884213D000
:1010B00018495031206888420ED0164964312068A2
:1010C000884209D0134978312068884204D01149F8
:1010D0008C312068884201D1012000E0002068B1F5
:1010E000D4E919104860E06E40B1E06E006820F469
:1010F0008070E16E0860D4E91C104860012084F81B
:10110000350000BF002084F8340000BF00BF9DE51B
:10111000A0040240085402582DE9F84F044600206C
:101120000090FE4800684FF41651B0FBF1FAA66D2E
:10113000D4F858803768D8F80090F9492068884278
:1011400049D0F74918312068884244D0F4493031F9
:10115000206888423FD0F2494831206888423AD01E
:10116000EF4960312068884235D0ED4978312068F8
:10117000884230D0EA499031206888422BD0E84933
:10118000A8312068884226D0E6492068884222D0CB
:10119000E4491831206888421DD0E2493031206886
:1011A000884218D0DF4948312068884213D0DD4991
:1011B0006031206888420ED0DA4978312068884250
:1011C00009D0D84990312068884204D0D549A83147
:1011D0002068884201D1012000E0002000287DD055
:1011E00094F85C0000F01F01082088403840002877
:1011F00068D0CB492068884249D0C9491831206855
:10120000884244D0C6493031206888423FD0C44922
:101210004831206888423AD0C1496031206888420C
:1012200035D0BF4978312068884230D0BC499031F0
:10123000206888422BD0BA49A8312068884226D03D
:10124000B8492068884222D0B649183120688842BF
:101250001DD0B44930312068884218D0B149483196
:101260002068884213D0AF496031206888420ED090
:10127000AC4978312068884209D0AA499031206869
:10128000884204D0A749A8312068884204D1206848
:10129000006800F0040003E02068006800F0080027
:1012A00080B12068006820F004002168086094F88C
:1012B0005C0000F01F0108208840B060606D40F0C5
:1012C0000100606594F85C0000F01F010120884077
:1012D0003840E8B392492068884200E0B7E24BD03A
:1012E0008F4918312068884246D08D4930312068B6
:1012F000884241D08A494831206888423CD0884998
:1013000060312068884237D085497831206888422A
:1013100032D083499031206888422DD08049A8314D
:101320002068884228D07F492068884224D07D499F
:101330001831206888421FD07A49303120688842AD
:101340001AD0784948312068884215D0754900E0A4
:1013500026E06031206888420ED0724978312068DA
:10136000884209D06F4990312068884204D06D4985
:10137000A8312068884204D12068406900F08000CC
:1013800002E020680068002050B194F85C0000F092
:101390001F0101208840B060606D40F00200606570
:1013A00094F85C0000F01F01042088403840E8B346
:1013B0005B49206888424BD05949183120688842DF
:1013C00046D0574930312068884241D0544948318D
:1013D000206888423CD0524960312068884237D02A
:1013E0004F4978312068884232D04D499031206889
:1013F00088422DD04A49A8312068884228D04949DE
:101400002068884224D047491831206888421FD07C
:1014100044493031206888421AD042494831206816
:10142000884215D03F496031206800E024E08842BE
:101430000ED03C4978312068884209D03949903132
:101440002068884204D03749A8312068884204D1F6
:101450002068006800F0020002E0206800680020B8
:1014600050B194F85C0000F01F0104208840B06087
:10147000606D40F00400606594F85C0000F01F01AE
:10148000102088403840E8B325492068884251D070
:1014900023491831206888424CD0214930312068D6
:1014A000884247D01E4948312068884242D01C49B2
:1014B0006031206888423DD01949783120688842DF
:1014C00038D0174990312068884233D01449A83168
:1014D000206888422ED01349206888422AD01149BA
:1014E00018312068884225D00E4930312068884262
:1014F00020D00C494831206888421BD0094960310E
:10150000206800E04DE0884214D006497831206818
:1015100088420FD003499031206805E01000002474
:101520001000024010040240884203D0FE492068A7
:10153000884204D12068006800F0080003E02068B9
:10154000006800F0040060B394F85C0000F01F0134
:1015500010208840B0602068006800F4802080B1CE
:101560002068006800F4002028B9206CC8B120462B
:10157000216C884715E0A06C98B12046A16C884783
:101580000FE02068006800F4807028B920680068C7
:1015900020F0080021680860206C10B12046216C02
:1015A000884794F85C0000F01F01202088403840F4
:1015B00000287DD0DD492068884249D0DB491831B8
:1015C0002068884244D0D9493031206888423FD0D1
:1015D000D6494831206888423AD0D44960312068E1
:1015E000884235D0D14978312068884230D0CF49FF
:1015F0009031206888422BD0CC49A831206888429D
:1016000026D0C949A8392068884221D0C6499039D6
:10161000206888421CD0C44978392068884217D095
:10162000C14960392068884212D0BF4948392068D2
:1016300088420DD0BC4930392068884208D0BA4968
:1016400018392068884203D0B7492068884204D1FD
:101650002068006800F0100003E02068006800F0D7
:10166000020028B394F85C0000F01F01202088409D
:10167000B06094F8350004282DD12068006820F06F
:101680001600216808602068406920F08000216809
:101690004861206C08B9A06C28B12068006820F06F
:1016A00008002168086094F85C0000F01F0100E069
:1016B0003FE03F208840B060012084F8350000BF43
:1016C000002084F8340000BF206D10B12046216D49
:1016D0008847BDE8F88F2068006800F4802080B15A
:1016E0002068006800F4002028B1606C08B3204630
:1016F000616C88471DE0E06BD8B12046E16B8847FC
:1017000017E02068006800F4807068B920680068FD
:1017100020F0100021680860012084F8350000BF27
:10172000002084F8340000BFE06B10B12046E16B6C
:101730008847606D00287AD0606D00F00100E8B342
:10174000042084F835007949206888424BD07749D5
:1017500018312068884246D0744930312068884268
:1017600041D072494831206888423CD06F4960318D
:101770002068884237D06D4978312068884232D05D
:101780006A499031206888422DD06849A831206884
:10179000884228D06449A8392068884223D0624909
:1017A0009039206888421ED05F4978392068884285
:1017B00019D05D4960392068884200E040E012D0CD
:1017C00059494839206888420DD057493039206836
:1017D000884208D0544918392068884203D05249B9
:1017E0002068884206D12068006820F00100216846
:1017F000086005E02068006820F0010021680860AA
:1018000000BF0098401C0090504500D905E02068BA
:10181000006800F001000028F3D100BF20680068D4
:1018200000F0010020B1032084F8350003E00DE052
:10183000012084F8350000BF002084F8340000BF88
:10184000E06C002802D02046E16C8847D9E1384995
:101850002068884222D036491431206888421DD041
:10186000334928312068884218D031493C312068FA
:10187000884213D02E495031206888420ED02C491E
:1018800064312068884209D029497831206888422B
:1018900004D027498C312068884201D1012000E022
:1018A00000200028D2D02068056894F85C0000F081
:1018B0001F010420884000EA0900D8B305F00400A5
:1018C000C0B394F85C0000F01F0104208840C8F801
:1018D000040005F4004080B105F4803030B1A06C04
:1018E0000028B3D02046A16C88478AE1206C0028EC
:1018F000ACD02046216C884783E105F02000E8BB8E
:101900000A492068884253D0084918312068884223
:101910004ED0064930312068884249D003494831C9
:101920002068884244D006E0B8040240100002401B
:10193000085402584FE0B44960312068884237D0DB
:10194000B14978312068884232D0AF49903120685F
:1019500088422DD0AC49A8312068884228D0AB49B4
:101960002068884224D0A9491831206888421FD0B5
:10197000A6493031206888421AD000E025E0A3490A
:1019800048312068884213D0A049603120688842DD
:101990000ED09E4978312068884209D09B49903109
:1019A0002068884204D09949A8312068884206D12D
:1019B0002068006820F008002168086005E02068C1
:1019C000006820F0040021680860206C10B32046F5
:1019D000216C884715E194F85C0000F01F0102209B
:1019E000884000EA0900E8B305F00200D0B394F89B
:1019F0005C0000F01F0102208840C8F8040005F4D4
:101A0000004070B105F4803028B9606C10B12046F8
:101A1000616C8847F5E0E06BF0B32046E16B8847E6
:101A2000EFE005F02000C0BB7749206888424ED027
:101A3000754918312068884249D07349303120688F
:101A4000884244D070494831206888423FD06E496E
:101A50006031206888423AD06B49783120688842EA
:101A600035D000E04EE068499031206888422ED0A1
:101A70006549A8312068884229D064492068884295
:101A800025D0624918312068884220D05F49303122
:101A9000206888421BD001E06EE02DE05B494831B0
:101AA0002068884213D059496031206888420ED09E
:101AB000564978312068884209D0544990312068CD
:101AC000884204D05149A8312068884206D1206854
:101AD000006820F014002168086005E020680068B4
:101AE00020F00A0021680860012084F8350000BF5A
:101AF000002084F8340000BFE06BE8B32046E16BBF
:101B000088477EE094F85C0000F01F0108208840C0
:101B100000EA090080B305F0080068B33A4920687C
:101B200088424BD0384918312068884246D036491F
:101B300030312068884241D033494831206888429A
:101B40003CD0314960312068884237D02E49783105
:101B50002068884232D02C499031206888422DD0AC
:101B60002949A8312068884228D02849206888421D
:101B700024D02649183100E043E0206888421DD077
:101B8000224930312068884218D0204948312068E5
:101B9000884213D01D496031206888420ED01B490D
:101BA00078312068884209D01849903120688842ED
:101BB00004D01649A8312068884206D12068006800
:101BC00020F01C002168086005E02068006820F013
:101BD0000E002168086094F85C0000F01F010120ED
:101BE0008840C8F804000120606584F8350000BF13
:101BF000002084F8340000BFE06C10B12046E16C96
:101C0000884700BF65E50000100002401004024054
:101C10002DE9F041044600F087FC804614B901200C
:101C2000BDE8F081FE492068884249D0FC4918315E
:101C30002068884244D0FA493031206888423FD039
:101C4000F7494831206888423AD0F5496031206828
:101C5000884235D0F24978312068884230D0F04946
:101C60009031206888422BD0ED49A8312068884205
:101C700026D0EC492068884222D0EA4918312068F1
:101C800088421DD0E74930312068884218D0E549A4
:101C900048312068884213D0E24960312068884288
:101CA0000ED0E04978312068884209D0DD49903172
:101CB0002068884204D0DB49A8312068884201D1DD
:101CC000012000E00020002873D0606A00B100BF4E
:101CD000022084F8350000BF002084F8340000BFE3
:101CE000CF492068884249D0CD49183120688842C0
:101CF00044D0CB493031206888423FD0C849483170
:101D0000206888423AD0C64960312068884235D080
:101D1000C34978312068884230D0C1499031206869
:101D200088422BD0BE49A8312068884226D0BD49C0
:101D30002068884222D0BB491831206888421DD0D3
:101D4000B84930312068884218D0B64948312068F7
:101D5000884213D0B3496031206888420ED0B1491F
:101D600078312068884209D0AE4990312068884295
:101D700004D0AC49A8312068884206D120680068A8
:101D800020F001002168086005E02068006820F06C
:101D90000100216808600DE000F0C6FBA0EB080020
:101DA000052807D920206065032084F8350001202C
:101DB00036E769E02068006800F001000028EBD1F8
:101DC0002068056898480540D4E902010843216964
:101DD000084361690843A1690843E1690843216A2E
:101DE00008430543606A042803D1D4E90B01084382
:101DF00005436068292802D360682E2817D96068D7
:101E00003F2802D36068422811D96068472802D36E
:101E1000606848280BD960684F2802D36068522850
:101E200005D96068742804D36068772801D8012038
:101E300000E0002008B145F48015206805602068A6
:101E4000456925F00705606A0543606A04280DD1DD
:101E5000A06A0543E06A48B12046FEF755FC28B168
:101E600040206065012084F83500D9E6206845618E
:101E70002046FEF725FB064694F85C0000F01F01A3
:101E80003F208840B0609EE068492068884222D0A8
:101E900066491431206888421DD064492831206881
:101EA000884218D061493C312068884213D05F498C
:101EB0005031206888420ED05C49643120688842E5
:101EC00009D05A4978312068884204D057498C316A
:101ED0002068884201D1012000E00020E0B353498E
:101EE0002068884222D051491431206888421DD090
:101EF0004E4928312068884218D04C493C3120682E
:101F0000884213D049495031206888420ED0474951
:101F100064312068884209D0444978312068884279
:101F200004D042498C312068884201D1012000E070
:101F3000002000B100BF022084F8350000BF00205F
:101F400084F8340000BF2068056839480540A0685F
:101F5000402802D1102106E02EE0A068802801D19F
:101F6000C10100E00021E06841EAD001206941EAB6
:101F7000D001606941EAD001A06941EAD001E0697D
:101F800041EAD001206A41EA10100543206805604B
:101F900026492068401A1421B0FBF1F08000E0656A
:101FA0002046FEF78DFA074694F85C0000F01F010A
:101FB00001208840786006E040206065032084F8B6
:101FC000350001202CE61649206888427AD0144951
:101FD00018312068884275D0114930312068884214
:101FE00070D00F494831206888426BD00C4960316D
:101FF0002068884266D00A4978312068884261D0DA
:1020000007499031206888425CD00549A831206892
:10201000884257D003492068884253D0014909E0DB
:1020200010000240100402403F8010FE0854025885
:102030000F00FEFF18312068884243D037492068DE
:1020400088423FD035491831206888423AD0334918
:1020500030312068884235D0304948312068884284
:1020600030D02E496031206888422BD02B497831FE
:102070002068884226D02A492068884222D02849F0
:102080001431206888421DD02549283120688842B3
:1020900018D023493C312068884213D02049503160
:1020A000206888420ED01E4964312068884209D0D9
:1020B0001B4978312068884204D019498C31206846
:1020C000884201D1012000E0002000B32046FEF745
:1020D0006DFAA068802801D1002060602079216E0F
:1020E0000860D4E919104860606860B16068082829
:1020F00009D82046FEF7BCFA0020E16E0860D4E95A
:102100001C10486003E00020E06620676067002044
:102110006065012084F83500002081E5400402401C
:10212000085402582DE9F04104460D4616461F4654
:102130004FF0000814B90120BDE8F08100BF94F809
:102140003400012801D10220F6E7012084F8340090
:1021500000BF94F8350001287ED1022084F83500B4
:102160000020606565492068884249D0634918317C
:102170002068884244D061493031206888423FD08D
:102180005E494831206888423AD05C496031206815
:10219000884235D0594978312068884230D0574933
:1021A0009031206888422BD05449A8312068884259
:1021B00026D053492068884222D0514918312068DE
:1021C00088421DD04E4930312068884218D04C4991
:1021D00048312068884213D04949603120688842DC
:1021E0000ED0474978312068884209D0444990315F
:1021F0002068884204D04249A8312068884206D12C
:102200002068006820F001002168086005E020686F
:10221000006820F00100216808603B4632462946EC
:102220002046FEF7C9FA3549206888424BD0334929
:1022300018312068884246D03049303120688842C1
:1022400041D02E494831206888423CD02B4960312A
:102250002068884237D000E043E028497831206880
:10226000884230D025499031206888422BD02349BC
:10227000A8312068884226D021492068884222D08F
:102280001F491831206888421DD01D49303120680F
:10229000884218D01A4948312068884213D018491A
:1022A0006031206888420ED0154978312068884214
:1022B00009D0134990312068884204D01049A831D0
:1022C0002068884206D12068006840F0010021683B
:1022D000086010E02068006840F001002168086094
:1022E00009E04FF40060606500BF002084F834000E
:1022F00000BF4FF0010840461EE7000010000240FA
:102300001004024070B5044600F00EF9064625465A
:10231000681C10B104480078054400BF00F004F9BF
:10232000801BA842FAD370BD0C000024F8B5024609
:102330000023714DDAE001279F400E6806EA07048A
:10234000002C7AD00E7906F00306012E04D00E7907
:1023500006F00306022E13D190685F000326BE40EC
:10236000B0435F00CE68BE403043906050680126A5
:102370009E40B0430E79C6F300169E403043506035
:102380000E7906F00306032E07D10E7906F0030638
:10239000032E0CD18E68012E09D0D0685F00032671
:1023A000BE40B0435F008E68BE403043D0600E79BF
:1023B00006F00306022E13D1DF0802F1200656F8BC
:1023C00027005E07F70E0F26BE40B0435F07FF0EE3
:1023D0000E69BE403043DF0802F1200646F82700B0
:1023E00010685F000326BE40B0430E7906F0030676
:1023F0005F00BE40304310604E6806F44036002E49
:1024000073D000BF3D4E366846F002063B4F3E603B
:102410003E46366806F00206009600BF00BF384E02
:102420009F0856F827009E07370F0F26BE40B0437F
:10243000344EB24202D1002629E056E0324EB2427A
:1024400001D1012623E0314EB24201D102261EE025
:102450002F4EB24201D1032619E02E4EB24201D1D5
:10246000042614E02C4EB24201D105260FE02B4E7B
:10247000B24201D106260AE0294EB24201D1072616
:1024800005E0284EB24201D1092600E00A269F0746
:102490003F0FBE4030431A4E9F0846F827004FF0CA
:1024A000B0463068A0434E6806F4801606B120435B
:1024B0004FF0B04630607068A0434E6806F40016D6
:1024C00006B120434FF0B04670606868A0434E6884
:1024D00006F4003606B1204368602868A0434E68C1
:1024E00006F4803606B1204328605B1C0E68DE408F
:1024F000002E7FF420AFF8BD80000058F44402584D
:10250000080400580000025800040258000802584D
:10251000000C02580010025800140258001802580B
:10252000001C02580024025801480068704700004F
:10253000040000240348006803490978084401495D
:1025400008607047040000240C00002410B503202C
:1025500000F00EF900F0E0FA10490968C1F3032118
:102560000F4A515C01F01F0120FA01F40B4800688A
:1025700000F00F001146085C00F01F0024FA00F084
:102580000849086008480460002000F00FF808B10E
:10259000012010BD00F088F80020FAE71844025826
:1025A0007E460008140000241000002470B5044684
:1025B0001148007808B9012070BD0F4800784FF429
:1025C0007A71B1FBF0F00D490968B1FBF0F52846CE
:1025D00000F066FF08B10120EEE7102C07D20022C0
:1025E0002146501E00F086F80548046001E00120F5
:1025F000E2E70020E0E700000C00002410000024C7
:10260000080000244178154A11601449083109680E
:1026100021F00101114A08321160121F4168116056
:10262000017B0907C27A41EA0261827A41EAC2412A
:10263000427B41EA8241827B41EA4241C27B41EADC
:102640000241427A41EA0221027A41EA42010278D9
:102650001143024A083211607047000098ED00E013
:10266000BFF35F8F0548006820F48030034908609D
:1026700000200249703108607047000024ED00E03E
:1026800040F00101074A116006497039096841F4B8
:102690008031044A703A1160BFF34F8FBFF36F8FE0
:1026A0007047000094ED00E008B500BF06480068E0
:1026B00040F00200044908600846006800F002008B
:1026C000009000BF00BF08BDF44402580146084610
:1026D00000280DDB00BF00BF00F01F0301229A405D
:1026E00043099B0003F1E023C3F8002100BF00BFB2
:1026F00000BF70472DE9F05F80460D46164601F099
:1027000015FF074639462A46334601F00700C0F157
:10271000070ABAF1040F02D94FF0040A01E0C0F130
:10272000070AD14600F1040ABAF1070F02D24FF0AE
:10273000000A01E0A0F1030AD4464FF0010A0AFAA8
:1027400009FAAAF1010A0AEA020A0AFA0CFA4FF097
:10275000010B0BFA0CFBABF1010B0BEA030B4AEA82
:102760000B042146404601F0E9FEBDE8F09F000061
:1027700000BF00F00702064B19684FF6FF0319402F
:10278000044B0B4343EA0221014B196000BF704721
:102790000CED00E00000FA0570B50446154800682D
:1027A000C0F3800048B91348006800F00700A04259
:1027B00001D0012070BD0020FCE70E48006820F029
:1027C000070020430B490860FFF7AEFE054607E00F
:1027D000FFF7AAFE401BB0F57A7F01D90120E9E797
:1027E000044808380068C0F340300028F0D00020CA
:1027F000E0E700000C4802582DE9F04104460D4680
:1028000014B90120BDE8F081BD48006800F00F0058
:10281000A8420ED2BA48006820F00F002843B849F9
:1028200008600846006800F00F00A84201D00120AF
:10283000E8E7207800F0040004280ED1B1492069AF
:10284000096801F07001884207D9AE48006820F09D
:10285000700021690843AB490860207800F0080047
:10286000082811D1A749091D6069096801F07001A4
:10287000884209D9A348001D006820F070006169F2
:102880000843A049091D0860207800F010001028B6
:1028900011D19C49091DA069096801F4E0618842D1
:1028A00009D99848001D006820F4E060A169084338
:1028B0009449091D0860207800F02000202811D1DB
:1028C00090490831E069096801F07001884209D92E
:1028D0008C480830006820F07000E169084389499D
:1028E00008310860207800F0020002280ED18549E6
:1028F000E068096801F00F01884207D98148006843
:1029000020F00F00E16808437E490860207800F05D
:102910000100002850D07B48006820F47060A16856
:102920000843784908606068022807D1754818385C
:102930000068C0F34040F8B9012063E760680328ED
:1029400007D1704818380068C0F34060A0B9012072
:1029500058E76068012807D16A4818380068C0F352
:10296000002048B901204DE7664818380068C0F3D8
:10297000800008B9012045E762480838006820F067
:102980000700616808435F4908390860FFF7CCFD1C
:10299000064608E0FFF7C8FD801B41F288318842F7
:1029A00001D903202EE757480838006800F03800A6
:1029B0006168B0EBC10FEDD1207800F00200022871
:1029C0000ED15049E068096801F00F01884207D232
:1029D0004C48006820F00F00E1680843494908604E
:1029E0004748006800F00F00A8420ED9444800682C
:1029F00020F00F002843424908600846006800F0B4
:102A00000F00A84201D00120FCE6207800F004006D
:102A100004280ED13B492069096801F07001884201
:102A200007D23848006820F0700021690843354912
:102A30000860207800F00800082811D13149091DEC
:102A40006069096801F07001884209D22D48001DB3
:102A5000006820F07000616908432A49091D086078
:102A6000207800F01000102811D12649091DA06916
:102A7000096801F4E061884209D22248001D00681B
:102A800020F4E060A16908431E49091D0860207810
:102A900000F02000202811D11A490831E0690968A6
:102AA00001F07001884209D216480830006820F011
:102AB0007000E169084313490831086000F02CF800
:102AC00010490968C1F303210F4A515C01F01F014D
:102AD00020FA01F70B48006800F00F001146085C6F
:102AE00000F01F0027FA00F0084908600848076056
:102AF00008480068FFF75AFD8046404682E600001D
:102B000000200052184402587E4600081400002499
:102B10001000002408000024F0B5824E366806F04C
:102B2000380636B1082E15D0102E15D0182E7DD1AE
:102B300014E07C4E103E3668C6F3401646B1794E1E
:102B4000103E3668C6F3C107774E26FA07F000E05C
:102B50007548E5E07548E3E07548E1E0714E1836E8
:102B6000366806F003046F4E18363668C6F3051152
:102B70006C4E1C36366806F001056A4E24363668FF
:102B8000C6F3CC0616FB05F601EE106AB8EE410A54
:102B9000002971D024B1012C50D0022C6DD16DE0F0
:102BA000604E103E3668C6F340163EB35D4E103E92
:102BB0003668C6F3C1075C4E26FA07F301EE103AF9
:102BC000F8EE411A01EE101AB8EE411A81EE812A90
:102BD0009FED581AC0EE011A524E20363668C6F3E1
:102BE000080601EE106AB8EE411A31EE811AF7EECE
:102BF000001A31EE211A62EE010A1EE001EE101AEF
:102C0000B8EE411ADFED4C1A81EE812A9FED491A88
:102C1000C0EE011A434E20363668C6F3080601EEB0
:102C2000106AB8EE411A31EE811A00E076E0F7EE54
:102C3000001A31EE211A62EE010A5BE001EE101A71
:102C4000B8EE411A9FED3D2AC2EE011A9FED391AE6
:102C500080EE012A334E20363668C6F3080601EEB0
:102C6000106AB8EE411A32EE011AB7EE002A31EEC0
:102C7000021A61EE810A3DE04EE01DE001EE101AFD
:102C8000B8EE411ADFED2E1A81EE812A9FED291A46
:102C9000C0EE011A234E20363668C6F3080601EE50
:102CA000106AB8EE411A31EE811AF7EE001A31EED1
:102CB000211A62EE010A1DE001EE101AB8EE411A67
:102CC0009FED1E2AC2EE011A9FED1A1A80EE012A0C
:102CD000144E20363668C6F3080601EE106AB8EEC8
:102CE000411A32EE011AB7EE002A31EE021A61EEF5
:102CF000810A00BF00BF0B4E20363668C6F3462659
:102D0000721C01EE102AB8EE411AC0EE811ABCEE18
:102D1000E11A11EE100A00E0002001E0034800BFB4
:102D200000BFF0BD104402580090D00300093D00E0
:102D300040787D01000000460024744C0024744A51
:102D400020BCBE4B2DE9F047044614B90120BDE874
:102D5000F087207800F00100002870D0F948006862
:102D600000F03808F7481830D0F80090B8F1100F8C
:102D700006D0B8F1180F0FD109F0030002280BD1CB
:102D8000F04810380068C0F3404000286AD06068FE
:102D9000002867D10120DAE700BF6068B0F5803F06
:102DA00008D1E8481038006840F48030E54910390F
:102DB00008602EE0606868B9E2481038006820F4C6
:102DC0008030E049103908600846006820F480200F
:102DD00008601EE06068B0F5A02F0DD1D94810380A
:102DE000006840F48020D749103908600846006820
:102DF00040F4803008600CE0D2481038006820F4BD
:102E00008030D049103908600846006820F48020DE
:102E1000086000BF606898B1FFF786FB054606E0D2
:102E2000FFF782FB401B642801D903208FE7C548C8
:102E300010380068C0F340400028F1D012E012E0E2
:102E4000FFF772FB054606E0FFF76EFB401B6428A8
:102E500001D903207BE7BB4810380068C0F340402D
:102E60000028F1D100BF207800F00200022879D1BB
:102E7000B448006800F03808B2481830D0F8009024
:102E8000B8F1000F05D0B8F1180F35D109F00300E3
:102E900088BBAC4810380068C0F3800018B1E06807
:102EA00008B9012053E7A7481038006820F019003E
:102EB000E1680843A34910390860FFF735FB054670
:102EC00006E0FFF731FB401B022801D903203EE753
:102ED0009C4810380068C0F380000028F1D0994861
:102EE0000C38006820F0FE40217C40EA01609549E2
:102EF0000C39086045E0FFE7E06838B391481038C6
:102F0000006820F01900E16808438E491039086014
:102F1000FFF70AFB054606E0FFF706FB401B022809
:102F200001D9032013E7874810380068C0F38000F8
:102F30000028F1D083480C38006820F0FE40217C46
:102F400040EA01607F490C3908601AE07D4810387A
:102F5000006820F001007B4910390860FFF7E4FAAF
:102F6000054607E00EE0FFF7DFFA401B022801D913
:102F70000320ECE6734810380068C0F38000002896
:102F8000F1D100BF207800F0100010286FD16D48FB
:102F9000006800F038086B481830D0F80090B8F19D
:102FA000080F06D0B8F1180F1CD109F00300012852
:102FB00018D1644810380068C0F3002020B1E069DF
:102FC000802801D00120C2E600BF5E48001F0068D3
:102FD00020F07C5094F8201040EA01605949091F04
:102FE000086043E0E06938B356481038006840F0A4
:102FF0008000544910390860FFF796FA054606E04C
:10300000FFF792FA401B022801D903209FE64D48A2
:1030100010380068C0F300200028F1D000BF4948F4
:10302000001F006820F07C5094F8201040EA0160F6
:103030004449091F086019E042481038006820F030
:103040008000404910390860FFF76EFA054606E037
:10305000FFF76AFA401B022801D9032077E63948B6
:1030600010380068C0F300200028F1D100BF20789C
:1030700000F00800082836D16069D0B131486430CA
:10308000006840F001002F4964310860FFF74CFAF6
:10309000054606E0FFF748FA401B022801D9032045
:1030A00055E6284864300068C0F340000028F1D09D
:1030B00019E024486430006820F00100214964319F
:1030C0000860FFF731FA054606E0FFF72DFA401BCE
:1030D000022801D903203AE61A4864300068C0F398
:1030E00040000028F1D1207800F02000202838D1BD
:1030F000A069D0B113481038006840F480501149DD
:1031000010390860FFF710FA054606E0FFF70CFAE1
:10311000401B022801D9032019E60A48103800682C
:10312000C0F340300028F1D01BE00648103800689A
:1031300020F48050034910390860FFF7F5F905467F
:1031400009E0000010440258FFF7EEF9401B022886
:1031500001D90320FBE5D0480068C0F340300028C7
:10316000F2D1207800F0040004287DD1CB4800681B
:1031700040F48070C9490860FFF7D6F9054606E0BB
:10318000FFF7D2F9401B642801D90320DFE5C348CB
:10319000006800F480700028F2D000BFA068012809
:1031A00008D1BD487030006840F00100BA49703164
:1031B00008602DE0A06868B9B7487030006820F05A
:1031C0000100B549703108600846006820F004002D
:1031D00008601DE0A06805280DD1AF487030006878
:1031E00040F00400AC49703108600846006840F0C7
:1031F000010008600CE0A8487030006820F0010071
:10320000A549703108600846006820F00400086095
:1032100000BFA068A0B1FFF787F9054608E0FFF7F7
:1032200083F9401B41F28831884201D903208EE5A1
:10323000994870300068C0F340000028EFD013E0D8
:10324000FFF772F9054608E0FFF76EF9401B41F2FF
:103250008831884201D9032079E58F4870300068B1
:10326000C0F340000028EFD1606A00287DD08A4872
:103270001030006800F03800182877D0606A022803
:1032800075D18548006820F0807083490860FFF799
:103290004BF9054606E0FFF747F9401B022801D924
:1032A000032054E57C480068C0F340600028F2D158
:1032B00000BFD4E90A1041EA0010774928310968B3
:1032C00040F2F33291430843734928310860208E5D
:1032D000401EC0F30800616B491E4FF47E4202EAB3
:1032E00041210843218F491ED20102EA01410843CE
:1032F0003C21095D491E120202EA01610843664948
:103300003031086000BF081F006820F00100091F6D
:1033100008606148343000684FF6F8718843A16C4A
:1033200040EAC1005C49343108605B482C300068D9
:1033300020F00C00216C084357492C3108600846E6
:10334000006820F00200616C084353492C3108608A
:103350000846006840F4803008600846006840F481
:10336000003008600846006802E092E038E01FE0A4
:1033700040F4802008600846006840F001000860C2
:103380004548006840F0807043490860FFF7CCF87A
:10339000054606E0FFF7C8F8401B022801D90320C4
:1033A000D5E43D480068C0F340600028F2D070E0EA
:1033B0003948006820F0807037490860FFF7B4F89A
:1033C000054606E0FFF7B0F8401B022801D90320AC
:1033D000BDE431480068C0F340600028F2D158E0F5
:1033E0002D48283007682C4830300668606A01286C
:1033F00021D007F00301A06A81421CD1C7F3051157
:10340000E06A884217D1C6F30801206B401E814252
:1034100011D1606B401EC6F3462188420BD1A06BD0
:10342000401EC6F30641884205D1E06B401EC6F33C
:103430000661884201D0012089E4174834300068D1
:10344000C0F3CC07A06CB84223D013482C300068DE
:1034500020F0010010492C310860FFF765F805469F
:1034600000BFFFF761F8401BFBD00B483430006809
:103470004FF6F8718843A16C40EAC1000649343127
:10348000086005482C30006840F0010002492C31EA
:10349000086000205BE40000004402580048025825
:1034A00070B504462546681EB0F1807F01D3012027
:1034B0000FE0681E4FF0E02148610F214FF0FF3010
:1034C00001F03CF800204FF0E021886107200861FE
:1034D000002070BD10B50346002200BF93F83C00E9
:1034E000012801D1022010BD012083F83C0000BF5B
:1034F00022F0FF00CC6840EA040222F440708C689D
:1035000040EA040222F480604C6840EA040222F49B
:1035100000600C6840EA040222F480500C6940EA22
:10352000040222F400504C6940EA040222F4804074
:103530000C6B40EA040222F470200C8B40EA044237
:1035400022F08050CC6940EA0402124C1868A04274
:1035500003D0114C1868A04213D122F470000C8DD6
:1035600040EA045222F080700C6A40EA040222F021
:1035700000704C6A40EA040222F00050CC6A40EA33
:1035800004021868426400BF002083F83C0000BFBA
:1035900000BFA8E7000001400004014030B502462A
:1035A0000B4600BF92F83C00012801D1022030BD3B
:1035B000012082F83C0000BF022082F83D00106824
:1035C000416810688468254D1068A84203D0244DD6
:1035D0001068A84203D121F470015868014321F01A
:1035E000700118680143106841601C4D1068A842C2
:1035F00023D01068B0F1804F1FD01A4D1068A84238
:103600001BD0194D1068A84217D0184D1068A84259
:1036100013D0134D1068A8420FD0154D1068A84262
:103620000BD0144D1068A84207D0134D1068A84263
:1036300003D0124D1068A84205D124F08004986888
:10364000044310688460012082F83D0000BF002020
:1036500082F83C0000BF00BFA9E700000000014065
:10366000000401400004004000080040000C00403D
:10367000001800400040014000E0004000E400402D
:1036800010B504460CB9012010BD94F83D0028B9CE
:10369000002084F83C00204600F02AF8022084F83C
:1036A0003D00211D206800F08DFC012084F84800B9
:1036B00000BF84F83E0001213F2001554020015504
:1036C00041200155422001554320015500BF00BF54
:1036D000012084F84400452001554620015547202B
:1036E000015500BF012084F83D000020CCE7000018
:1036F00038B504465149206888427DD100BF504802
:10370000006840F001004E4908600846006800F07B
:103710000100009000BF00BF4A484B4908600B20E1
:1037200048604021484881600021C1604FF48061B9
:10373000016189004161890081610021C1614FF40B
:103740004031016200214162FEF762FA08B1FDF7E3
:103750004EFA00BF3C4961620846846300BF3948A5
:1037600018303A4908600C20486040213748816091
:103770000021C1604FF480610161890041618900CD
:1037800081610021C1614FF4403101620021416239
:10379000FEF73EFA08B1FDF72AFA00BF2B49A162F5
:1037A0000846846300BF27483030294908600D204F
:1037B00048604021264881600021C1604FF480614B
:1037C000016189004161890081610021C1614FF47B
:1037D0004031016200214162FEF71AFA08B1FDF79B
:1037E00006FA00BF1A49E1620846846300BF154823
:1037F00048301849086000E01FE00E204860402172
:10380000144881600021C1604FF48061016189002A
:103810004161890081610021C1614FF44031016241
:1038200000214162FEF7F4F908B1FDF7E0F900BFAD
:10383000084921630846846300BF38BD0000014089
:10384000F04402581000024068000024E000002408
:1038500058010024D00100242DE9F04104460D4612
:10386000002700BF94F83C00012802D10220BDE8E7
:10387000F081012084F83C0000BF022084F83D0064
:10388000206886684048064026F47F4620688660A7
:103890002868702826D00CDC00F00F01002966D1C2
:1038A0000011072863D2DFE800F0555657584B3710
:1038B0004100B0F1101F52D009DCB0F5805F10D08C
:1038C000B0F5005F1BD0B0F5801F50D146E0A0F5E9
:1038D00080102038002843D0102842D0202846D11C
:1038E00040E046E0D5E902136A68206800F0DEFB9C
:1038F0002068866846F077062068866039E0D5E95A
:1039000002136A68206800F0D1FB2068806840F4E8
:103910008040216888602CE0EA686968206800F0CF
:1039200097FD5021206800F0CDFB22E0EA6869682D
:10393000206800F0C3FD6021206800F0C3FB18E0A0
:10394000EA686968206800F083FD4021206800F083
:10395000B9FB0EE000BF00BF00BF00BF00BF00BF4B
:1039600000BF00BF2968206800F0ACFB01E0012720
:1039700000BF00BF012084F83D0000BF002084F894
:103980003C0000BF384672E788FFCEFF10B586B016
:103990000446142101A8FCF70DFD11492068884256
:1039A0001BD100BF0F48006840F010000D490860AF
:1039B0000846006800F01000009000BF00BF4FF400
:1039C000D440019002200290002003900490012036
:1039D000059001A90448FEF7A9FC06B010BD00003F
:1039E00000000140E0440258001002582DE9F04167
:1039F00004460D461646002700BF94F83C000128F7
:103A000002D10220BDE8F081012084F83C0000BF13
:103A10000C2E51D005DC4EB1042E1ED0082E7AD1CA
:103A200033E0102E60D0142EF9D175E029462068BD
:103A300000F054FB2068806940F00800216888612C
:103A40002068806920F0040021688861206880690E
:103A5000296908432168886178E02946206800F0D8
:103A600095FB2068806940F40060216888612068C7
:103A7000806920F4806021688861206880692969F4
:103A800040EA01202168886160E02946206800F052
:103A9000D9FB2068C06940F008002168C86120682F
:103AA000C06920F004002168C8612068C0692969E4
:103AB00008432168C86149E02946206800F01EFCDF
:103AC0002068C06940F400602168C8612068C0694E
:103AD00020F480602168C8612068C069296940EAD3
:103AE00001202168C86131E02946206800F040FCCF
:103AF0002068406D40F00800216848652068406DEE
:103B000020F00400216848652068406D2969084359
:103B1000216848651AE017E02946206800F060FC3B
:103B20002068406D40F40060216848652068406D61
:103B300020F48060216848652068406D296940EA6A
:103B400001202168486501E0012700BF00BF00BFD8
:103B5000002084F83C0000BF384653E710B5044607
:103B60000CB9012010BD94F83D0028B9002084F85C
:103B70003C00204600F029F8022084F83D00211D79
:103B8000206800F01FFA012084F8480000BF84F884
:103B90003E0001213F2001554020015541200155A3
:103BA000422001554320015500BF00BF012084F889
:103BB000440045200155462001554720015500BFCE
:103BC000012084F83D000020CCE7704700BFFEE7ED
:103BD0001FB500200090019002900390FEF740FD79
:103BE00001208DF8000000208DF8010001901F20B9
:103BF0008DF8080087208DF8090000208DF80A0054
:103C00008DF80B0001208DF80C008DF80D000020C0
:103C10008DF80E008DF80F006846FEF7F3FC0420C7
:103C2000FEF72EFD1FBD000008B500BF1648006856
:103C300040F00100144908600846006800F00100E7
:103C4000009000BF00BF002211460B20FEF752FD7E
:103C50000B20FEF73BFD002211460C20FEF74AFD2B
:103C60000C20FEF733FD002211460D20FEF742FD29
:103C70000D20FEF72BFD002211460E20FEF73AFD27
:103C80000E20FEF723FD08BDD844025808B500BF3A
:103C90000D48006840F080000B4908600846006845
:103CA00000F08000009000BF00BF00BF0846006821
:103CB00040F0100008600846006800F01000009016
:103CC00000BF00BF08BD0000E044025800B59BB033
:103CD00000201790189019901A9014901590169033
:103CE0001C210DA8FCF766FB34216846FCF762FB3B
:103CF0003A483B490860002048600021384881600C
:103D00009821C1600021016141618161FFF7B8FC28
:103D100008B1FCF76CFF4FF48050179017A930489A
:103D2000FFF79AFD08B1FCF762FF2D48FFF716FF79
:103D300008B1FCF75CFF002014901590169014A9B0
:103D40002748FFF72BFC08B1FCF751FF60200D90CE
:103D500000200E900F90109011901290139000225E
:103D60000DA91F48FFF742FE08B1FCF740FF0422EF
:103D70000DA91B48FFF73AFE08B1FCF738FF0822EF
:103D80000DA91748FFF732FE08B1FCF730FF0C22EF
:103D90000DA91348FFF72AFE08B1FCF728FF002001
:103DA000009001900290039004904FF40050059011
:103DB0000020069008904FF00070099000200A90B3
:103DC0000C9069460648FFF785FB08B1FCF70FFF2A
:103DD0000348FFF7DBFD1BB000BD00000000014001
:103DE0001C00002400BFFEE700BFFEE770477047DD
:103DF00010B5FEF79FFB10BD00B59DB04C210AA881
:103E0000FCF7D8FA202102A8FCF7D4FA0220FEF72A
:103E1000C3FC00BF002001902648006820F4404009
:103E2000244908600846006800F44040019000BF43
:103E300000BF00BF1F48006800F40050B0F5005FED
:103E4000F8D102200A9001200D9040200E9002200F
:103E50001390002114910421159122211691012122
:103E600017910221189119910C211A9100211B918F
:103E70004FF440611C910AA8FEF764FF08B1FCF7FB
:103E8000B6FE3F20029003200390002004900820FB
:103E9000059040200690079000010890402009906E
:103EA000032102A8FEF7A8FC08B1FCF7A0FE1DB094
:103EB00000BD0000184802583A48006840F47000FD
:103EC000384908603848006800F00F00072806D21B
:103ED0003548006820F00F00C01D334908603348A2
:103EE000006840F001003149086000202F4910317E
:103EF00008602E4800682E4908402C4908602A486E
:103F0000006800F00F00072806D92748006820F055
:103F10000F00C01D244908600020244918310860A2
:103F2000091D0860091D08602248204928310860E1
:103F30002148091D08602148091D08600020091D4D
:103F400008601E48091D08600020091D08601B4804
:103F5000091D08600020091D08601448006820F44D
:103F600080201249086000201049603108600F4825
:103F7000D430006800F4805098B90C48D430006800
:103F800040F480500949D431086043F2D2000C4912
:103F900008600648D430006820F480500349D431CA
:103FA0000860704788ED00E000200052004402588D
:103FB0007FEDF6EA000202020000FF01800201012B
:103FC0000040005210B502682E4B98420ED0B0F15E
:103FD000804F0BD02C4B984208D02C4B984205D0E8
:103FE0002B4B984202D02B4B984203D122F0700207
:103FF0004B681A43234B98421DD0B0F1804F1AD022
:10400000214B984217D0214B984214D0204B984214
:1040100011D0204B98420ED01F4B98420BD01F4B13
:10402000984208D01E4B984205D01E4B984202D0B1
:104030001D4B984203D122F44072CB681A4322F000
:1040400080034C6943EA04028B68C3620B68836295
:104050000C4B98420BD00F4B984208D00E4B984215
:1040600005D00E4B984202D00D4B984201D10B69FE
:104070000363036843F004030360012343610260A8
:1040800010BD000000000140000400400008004096
:10409000000C004000040140004001400044014089
:1040A0000048014000E0004000E4004030B50C460C
:1040B000816821F47F4142EA032525432943816039
:1040C00030BD00000A468168034B194042F00703E7
:1040D00019438160704700008FFFCFFF30B5026A3F
:1040E000056A25F00105056243688469214D2C406D
:1040F00024F003040D682C4322F002028D682A4349
:104100001D4DA84200D10FE01C4DA84200D10BE08C
:104110001B4DA84200D107E01A4DA84200D103E090
:10412000194DA84208D100BF056A25F004050562B3
:1041300022F00802CD682A430F4DA8420BD00F4D44
:10414000A84208D00E4DA84205D00E4DA84202D07C
:104150000D4DA84207D123F4807323F400734D69F9
:104160002B438D692B43436084614D684563026234
:1041700030BD00008FFFFEFF000001400004014041
:1041800000400140004401400048014030B5026A4F
:10419000056A25F01005056243688469234D2C40AB
:1041A00024F440740D6844EA052422F020028D684E
:1041B00042EA05121E4DA84200D10FE01D4DA84253
:1041C00000D10BE01C4DA84200D100BF1B4DA842FE
:1041D00000D100BF1A4DA84209D108E0056A25F0B8
:1041E0004005056222F08002CD6842EA0512104DBA
:1041F000A8420BD00F4DA84208D00F4DA84205D0C1
:104200000E4DA84202D00E4DA84209D123F480637E
:1042100023F400634D6943EA85038D6943EA85030E
:10422000436084614D688563026230BDFF8FFFFE8D
:1042300000000140000401400040014000440140F2
:104240000048014030B5026A056A25F480750562B0
:104250004368C469234D2C4024F003040D682C43AB
:1042600022F400728D6842EA05221F4DA84200D157
:104270000FE01E4DA84200D10BE01D4DA84200D119
:1042800000BF1C4DA84200D100BF1B4DA84209D160
:1042900008E0056A25F48065056222F40062CD68B5
:1042A00042EA0522104DA8420BD0104DA84208D07A
:1042B0000F4DA84205D00F4DA84202D00E4DA84286
:1042C00009D123F4805323F400534D6943EA0513C5
:1042D0008D6943EA05134360C4614D68C56302629A
:1042E00030BD00008FFFFEFF0000014000040140D0
:1042F00000400140004401400048014030B5036ADD
:10430000056A25F4805505624468C269124D2A4049
:1043100022F440720D6842EA052223F400538D68AE
:1043200043EA05330D4DA8420BD00D4DA84208D0ED
:104330000C4DA84205D00C4DA84202D00B4DA8420E
:1043400004D124F480444D6944EA85144460C26178
:104350004D680564036230BDFF8FFFFE0000014021
:104360000004014000400140004401400048014079
:1043700030B5026A056A25F4803505624368446DEC
:10438000114D2C400D682C4322F400320D8942EA75
:1043900005420E4DA8420BD00D4DA84208D00D4D40
:1043A000A84205D00C4DA84202D00C4DA84204D121
:1043B00023F480334D6943EA0523436044654D6827
:1043C0008565026230BD00008FFFFEFF00000140E6
:1043D0000004014000400140004401400048014009
:1043E00030B5026A056A25F4801505624368446D9C
:1043F000114D2C400D6844EA052422F400120D8969
:1044000042EA05520D4DA8420BD00D4DA84208D0EE
:104410000C4DA84205D00C4DA84202D00B4DA8422D
:1044200004D123F480234D6943EA85234360446526
:104430004D68C565026230BDFF8FFFFE0000014080
:104440000004014000400140004401400048014098
:1044500030B50B461446026A056A25F0010505626F
:10446000114DA84200D10FE0104DA84200D10BE041
:104470000F4DA84200D107E00E4DA84200D103E045
:104480000D4DA84204D100BF056A25F00405056260
:10449000816921F0F00141EA041122F00A021A4375
:1044A0008161026230BD0000000001400004014053
:1044B00000400140004401400048014030B50B4637
:1044C0001446026A056A25F010050562114DA842DE
:1044D00000D10FE0104DA84200D10BE00F4DA842D3
:1044E00000D100BF0E4DA84200D100BF0D4DA84223
:1044F00004D103E0056A25F040050562816921F4D5
:10450000704141EA043122F0A00242EA03128161C3
:10451000026230BD00000140000401400040014043
:10452000004401400048014000BFFEE70248006827
:10453000C0F30220704700000CED00E010B5002829
:1045400004DB0A07130E054A135406E00A07140E8B
:10455000034A00F00F031B1FD45410BD00E400E019
:1045600018ED00E008B5FFF733FB00BF3B480068DB
:1045700000F4003000B115E0BFF34F8FBFF36F8F31
:10458000002037490860BFF34F8FBFF36F8F334868
:10459000006840F4003031490860BFF34F8FBFF32B
:1045A0006F8F00BF00BF2D4B1B6803F4803303B136
:1045B00030E00023294C70342360BFF34F8F231F5A
:1045C0001868C0F34E3100BFC0F3C90200BF43F604
:1045D000E07303EA41134FF0404404EA827423433A
:1045E0001F4C1034236000BF00BF131EA2F1010254
:1045F000EDD10B1EA1F10101E6D1BFF34F8F174B97
:104600001B6843F48033154C2360BFF34F8FBFF317
:104610006F8F00BFFDF79AFFFFF7EEFBFFF736FB4A
:10462000FFF702FBFFF752FB0E48FCF7FFF9FCF720
:10463000F3FA12E000200C4C00902488A3B20A4C3C
:104640002488A2B2084C2488A1B2074C2488A0B2C6
:10465000FCF70AFA0220FDF755FEEBE714ED00E047
:1046600050EF00E01C000024000000244FF04070D8
:10467000E1EE100A70470006101600061016000042
:1046800000000102030401020304060708090000F8
:104690000100000002000000030000000400000010
:1046A00034000140380001403C000140400001401E
:1046B000D0460008000000241C0000000803000889
:1046C000EC4600081C0000248C08000024030008AD
:1046D000E8030000000000001000000001000000DE
:0C46E0000090D0030090D0030000000008
:04000005080002CD20
:00000001FF
